:100000000C943E000C9448000C9448000C9448005A
:100010000C9448000C9448000C9448000C94480040
:100020000C9448000C9448000C9448000C94480030
:100030000C9448000C9448000C9448000C94480020
:100040000C9448000C9448000C9448000C94480010
:100050000C9448000C9448000C9448000C94480000
:100060000C9448000C9448000C9448000C944800F0
:100070000C9448000C9448000C94480011241FBEB6
:10008000CFEFD8E0DEBFCDBF0E944A000C945D00E8
:100090000C94000083E081B91AB880E090E0DC01A4
:1000A00022E031E04A9BFECF80FF05C032B90196C5
:0E00B000A11DB11DF7CF22B9FACFF894FFCFF2
:00000001FF
